:020000040800F2
:10000000F006002029020008051500085F1400080A
:10001000011500081F0400085D1A00080000000018
:100020000000000000000000000000000B150008A8
:100030002304000800000000091500080D15000841
:10004000430200084302000843020008430200087C
:10005000430200084302000843020008430200086C
:10006000430200084302000843020008430200085C
:10007000430200084302000843020008430200084C
:10008000430200084302000843020008430200083C
:10009000430200084302000843020008430200082C
:1000A000430200084302000843020008430200081C
:1000B000430200084302000843020008430200080C
:1000C00043020008430200084302000843020008FC
:1000D000430200084D1A00084302000843020008CA
:1000E00043020008430200084302000843020008DC
:1000F00043020008430200084302000843020008CC
:1001000043020008430200084302000843020008BB
:1001100043020008430200084302000843020008AB
:10012000430200084302000843020008430200089B
:10013000430200084302000843020008430200088B
:10014000430200084302000843020008430200087B
:10015000430200084302000843020008430200086B
:10016000430200084302000843020008430200085B
:100170004302000843020008430200080000000098
:10018000430200084302000800F002F800F03CF8C7
:100190000AA090E8000C82448344AAF10107DA45E2
:1001A00001D100F031F8AFF2090EBAE80F0013F0F8
:1001B000010F18BFFB1A43F001031847AC1E0000E3
:1001C000CC1E0000103A24BF78C878C1FAD8520774
:1001D00024BF30C830C144BF04680C6070470000C1
:1001E0000023002400250026103A28BF78C1FBD840
:1001F000520728BF30C148BF0B6070471FB501F0E0
:100200001CFF1FBD10B510BD00F0CFF81146FFF761
:10021000F5FF01F055FC00F0EDF803B4FFF7F2FF35
:1002200003BC00F0F5F80000094880470948004782
:10023000FEE7FEE7FEE7FEE7FEE7FEE7FEE7FEE796
:10024000FEE7FEE704480549054A064B70470000F3
:10025000C915000889010008F0000020F006002000
:10026000F0020020F002002053EA020C00F0698046
:100270002DE9F04B4FF00006002B1FBFB3FA83F5BA
:1002800003FA05F424FA05F65E4012BF1643B2FAEB
:1002900082F502FA05F4C5F120051EBF22FA05FC1D
:1002A00044EA0C04203556EA044C4FEA144418BFC3
:1002B000641C4FF000084FF00009904271EB030CF2
:1002C00039D3002919BFB1FA81F701FA07F6B0FA5C
:1002D00080F700FA07F6C7F120071EBF20FA07FCD7
:1002E00046EA0C062037B6FBF4FCA7EB0507103FE7
:1002F00007F01F0BCBF120060CFA0BFB2CFA06F6CD
:1003000044BFB3460026202FA4BF5E464FF0000B2B
:100310005BEA060C08BF4FF0010B19EB0B09ABFBB6
:10032000027C48EB0608C01B06FB02CC0BFB03CC8F
:1003300071EB0C01C1E70B46024641464846BDE859
:10034000F08B13B54FF000004FF00001AFF30080C9
:10035000BDE81C4070474FF0000200B513469446BC
:100360009646203922BFA0E80C50A0E80C50B1F10D
:100370002001BFF4F7AF090728BFA0E80C5048BF21
:100380000CC05DF804EB890028BF40F8042B08BFBF
:10039000704748BF20F8022B11F0804F18BF00F8BB
:1003A000012B7047704770477047754600F02CF876
:1003B000AE4605006946534620F00700854618B052
:1003C00020B5FFF73FFFBDE820404FF000064FF09B
:1003D00000074FF000084FF0000B21F00701AC467A
:1003E000ACE8C009ACE8C009ACE8C009ACE8C00999
:1003F0008D46704710B50446AFF300802046BDE837
:100400001040FFF70ABF000000487047900000202E
:1004100001491820ABBEFEE726000200704700BF6E
:10042000FEE7704772B600BFFEE770B50446A56DE3
:1004300000F060F9064694F83500022808D08020C4
:10044000606500BF002084F8340000BF012070BD4B
:100450002068006820F01600216808602068406964
:1004600020F0800021684861206C08B9A06C28B198
:100470002068006820F00800216808602068006893
:1004800020F001002168086010E000F033F9801BC3
:1004900005280BD920206065032084F8350000BFB3
:1004A000002084F8340000BF0320D0E720680068F3
:1004B00000F001000028E8D194F85C103F2088404B
:1004C000A860012084F8350000BF002084F83400C3
:1004D00000BF00BFBBE7014691F83500022803D0FA
:1004E0008020486501207047052081F835000868A4
:1004F000006820F001000A6810600020F3E70000A7
:10050000F8B502460B460025002400200021D6E065
:10051000012606FA01F51E6806EA0504AC4274D10C
:100520001E7906F00306012E04D01E7906F003069C
:10053000022E13D190684F000326BE40B0434F00F7
:10054000DE68BE4030439060506801268E40B04364
:100550001E79C6F300168E40304350601E7906F0B7
:100560000306032E09D0D0684F000326BE40B043D7
:100570004F009E68BE403043D0601E7906F00306EF
:10058000022E13D1CF0802F1200656F827004E079D
:10059000F70E0F26BE40B0434F07FF0E1E69BE4048
:1005A0003043CF0802F1200646F8270010684F00BC
:1005B0000326BE40B0431E7906F003064F00BE403E
:1005C000304310605E6806F44036002E76D000BFDF
:1005D000002600963C4E366846F480463A4F3E6010
:1005E0003E46366806F48046009600BF00BF374E90
:1005F0008F0856F827008E07370F0F26BE40B043EE
:10060000334EB24202D1002624E057E0314EB242CE
:1006100001D101261EE0304EB24201D1022619E07E
:100620002E4EB24201D1032614E02D4EB24201D12A
:1006300004260FE02B4EB24201D105260AE02A4ED5
:10064000B24201D1062605E0284EB24201D107266A
:1006500000E008268F073F0FBE4030431B4E8F0837
:1006600046F82700224E3068A0435E6806F48016E4
:1006700006B120431E4E3060361D3068A0435E68D0
:1006800006F4001606B12043194E361D3060184E90
:10069000361F3068A0435E6806F4003606B120437A
:1006A000134E361F3060361F3068A0435E6806F474
:1006B000803606B120430E4E083E3060491C10299A
:1006C000FFF426AFF8BD000044380240083801406E
:1006D000000002400004024000080240000C0240FA
:1006E000001002400014024000180240001C0240AA
:1006F000083C0140014800687047000000000020ED
:1007000003480068034909780844014908607047B4
:10071000000000200800002010B50D48006840F4DB
:1007200000700B4908600846006840F4806008606B
:100730000846006840F480700860032000F0A2F8CA
:100740000F2000F007F800F02BF8002010BD00008B
:10075000003C024070B504460E4800784FF47A71B0
:10076000B1FBF0F00C490968B1FBF0F5284600F048
:100770002BFC08B1012070BD102C07D200222146AD
:10078000501E00F041F80548046001E00120F2E746
:100790000020F0E7080000200C00002004000020EA
:1007A00008B500BF002000900E48006840F480406B
:1007B0000C4908600846006800F48040009000BFC3
:1007C00000BF00BF00200090081F006840F080506C
:1007D000091F08600846006800F08050009000BFC4
:1007E00000BF08BD4438024001460846002809DB26
:1007F00000F01F0301229A4043099B0003F1E0230C
:10080000C3F8002100BF70472DE9F05F80460D4618
:100810001646002701F024F9074639462A46334692
:1008200001F00700C0F1070ABAF1040F02D94FF036
:10083000040A01E0C0F1070AD14600F1040ABAF146
:10084000070F02D24FF0000A01E0A0F1030AD446DC
:100850004FF0010A0AFA09FAAAF1010A0AEA020AA1
:100860000AFA0CFA4FF0010B0BFA0CFBABF1010B7F
:100870000BEA030B4AEA0B042146404601F0F8F864
:10088000BDE8F09F00BF00F00702064B19684FF665
:10089000FF031940044B0B4343EA0221014B19604B
:1008A00000BF70470CED00E00000FA0570B504468B
:1008B0000D460CB9012070BD5848006800F00700D3
:1008C000A84209D255490D700846006800F007009B
:1008D000A84201D00120EEE7207800F002000228B3
:1008E0001DD1207800F00400042805D14C48006890
:1008F00040F4E0504A490860207800F008000828D9
:1009000005D14748006840F46040454908604448C4
:10091000006820F0F000A168084341490860207891
:1009200000F00100A8B36068012807D13C480838EE
:100930000068C0F34040B8B90120BCE760680228F5
:1009400002D06068032807D1354808380068C0F332
:10095000406048B90120AEE7314808380068C0F36C
:10096000400008B90120A6E72D48006820F00300E8
:10097000616808432A490860FFF7BCFE064609E0A3
:10098000FFF7B8FE801B41F28831884202D903206C
:1009900091E707E02248006800F00C006168B0EBC6
:1009A000810FEDD11D48006800F00700A84209D969
:1009B0001A490D700846006800F00700A84201D0EF
:1009C000012078E7207800F00400042807D11448BB
:1009D000006820F4E050E16808431149086020787D
:1009E00000F00800082808D10D48006820F4604095
:1009F000216940EAC1000A49086000F03FF808494F
:100A00000968C1F30311074A515CC84006490860F0
:100A100006480068FFF79EFE00204CE7003C0240BD
:100A2000083802404E2000080C000020040000207E
:100A300001480068704700000C00002000B5FFF777
:100A4000F7FF04490968C1F38221034A515CC84099
:100A500000BD0000083802405E20000800B5FFF726
:100A6000E7FF04490968C1F34231034A515CC840B9
:100A700000BD0000083802405E2000082DE9F04764
:100A8000002400250026A1462548006800F00C003F
:100A900020B1042805D008283AD105E0DFF8849079
:100AA00039E0DFF8849036E01D48001F006800F050
:100AB0003F041B48001F006800F4800078B11A480A
:100AC0001749091F0968C1F38811A0FB017001468D
:100AD000224600233846FFF7C7FB05460EE01148C3
:100AE0000F49091F0968C1F38811A0FB0170014675
:100AF000224600233846FFF7B7FB05460848001F8B
:100B00000068C0F30140401C4600B5FBF6F902E066
:100B1000DFF8109000BF00BF4846BDE8F087000036
:100B2000083802400024F400001BB700F8B5044662
:100B30000CB90120F8BD207800F00100002874D025
:100B4000F948006800F00C0004280DD0F648006851
:100B500000F00C00082813D1F348001F006800F4CF
:100B60008000B0F5800F0BD1EF4808380068C0F363
:100B70004040002859D06068002856D10120D9E7AC
:100B800000BF6068B0F5803F08D1E74808380068CA
:100B900040F48030E449083908601EE06068B0F530
:100BA000A02F0DD1E0480838006840F48020DE49CD
:100BB000083908600846006840F4803008600CE09E
:100BC000D9480838006820F48030D74908390860CF
:100BD0000846006820F48020086000BF606890B17B
:100BE000FFF788FD054606E0FFF784FD401B6428FB
:100BF00001D903209EE7CC4808380068C0F3404084
:100C00000028F1D011E0FFF775FD054606E0FFF77B
:100C100071FD401B642801D903208BE7C2480838C6
:100C20000068C0F340400028F1D1207800F00200B5
:100C300002285FD1BC48006800F00C0058B1BA48E7
:100C4000006800F00C0008281CD1B748001F00689D
:100C500000F48000B0B9B44808380068C0F3400020
:100C600020B1E068012801D0012063E7AE480838D0
:100C7000006820F0F800216940EAC100AA4908395B
:100C8000086037E0E06800B30120A8490860FFF77A
:100C900031FD054606E0FFF72DFD401B022801D976
:100CA000032047E7A04808380068C0F34000002848
:100CB000F1D09D480838006820F0F800216940EA2A
:100CC000C10099490839086014E00020974908607C
:100CD000FFF710FD054606E0FFF70CFD401B02285C
:100CE00001D9032026E7904808380068C0F3400087
:100CF0000028F1D1207800F0080008282CD1606984
:100D0000A8B101208A490860FFF7F4FC054606E017
:100D1000FFF7F0FC401B022801D903200AE78248B4
:100D20006C300068C0F340000028F1D014E00020CF
:100D30007F490860FFF7DEFC054606E0FFF7DAFCB6
:100D4000401B022801D90320F4E677486C30006884
:100D5000C0F340000028F1D1207800F004000428FE
:100D600070D1002770483830006800F0805090B98A
:100D700000BF002000906C483830006840F0805080
:100D80006949383108600846006800F080500090DA
:100D900000BF00BF01276748006800F48070B0B949
:100DA0006448006840F4807062490860FFF7A2FC64
:100DB000054606E0FFF79EFC401B022801D90320F0
:100DC000B8E65C48006800F480700028F2D000BFEC
:100DD000A068012808D154486830006840F001003C
:100DE0005149683108601DE0A06805280DD14E48C2
:100DF0006830006840F004004B49683108600846DC
:100E0000006840F0010008600CE047486830006866
:100E100020F001004449683108600846006820F06D
:100E20000400086000BFA068A8B1FFF763FC054696
:100E300009E0FFF75FFC401B41F28831884202D98C
:100E4000032077E626E0384868300068C0F34000A9
:100E50000028EED013E0FFF74DFC054608E0FFF751
:100E600049FC401B41F28831884201D9032061E6E8
:100E70002D4868300068C0F340000028EFD1012FF2
:100E800007D129483830006820F080502649383191
:100E9000086000BFA069002845D02348006800F022
:100EA0000C0008285DD0A069022845D100201F4908
:100EB0000866FFF71FFC054606E0FFF71BFC401B1A
:100EC000022801D9032035E6174808380068C0F326
:100ED00040600028F1D1D4E907010843616A40EA83
:100EE00081110122A06AC2EB500041EA00412C208E
:100EF000005D41EA00600C49091F086001200B49B0
:100F00000866FFF7F7FB054606E0FFF7F3FB401B1B
:100F1000022801D903200DE6034808380068C0F311
:100F200040600028F1D049E0083802400000474204
:100F3000800E474200700040002021490866FFF7FC
:100F4000D9FB054606E0FFF7D5FB401B022801D977
:100F50000320EFE51B480068C0F340600028F2D191
:100F60002CE0A069012800D1E4E51648001D0668C0
:100F7000A069012820D006F48001E06981421BD1DC
:100F800006F03F01206A814216D147F6C07030401A
:100F9000616AB0EB811F0FD106F440310122A06AD3
:100FA000C2EB5000B1EB004F06D106F070612C206F
:100FB000005DB1EB006F01D00120BBE50020B9E579
:100FC000000047420038024070B504462546681EBE
:100FD000B0F1807F01D301200FE0681E4FF0E021C7
:100FE00048610F214FF0FF3000F042FD00204FF02C
:100FF000E021886107200861002070BD70477047BC
:101000002DE9F84F0446206805682068C668206806
:1010100047694FF00009CA4605F00F09B9F1000F02
:101020000AD105F0200038B106F0200020B120469A
:1010300000F024FBBDE8F88FB9F1000F7CD007F079
:10104000010018B906F49070002875D005F0010071
:1010500030B106F4807018B1206C40F001002064BB
:1010600005F0040030B107F0010018B1206C40F029
:101070000200206405F0020030B107F0010018B151
:10108000206C40F00400206405F0080048B106F030
:10109000200010B907F0010018B1206C40F00800E2
:1010A0002064206C002846D005F0200028B106F00E
:1010B000200010B1204600F0E1FA20684069C0F33A
:1010C000801A206C00F0080010B9BAF1000F2DD082
:1010D000204600F08DFA2068406900F0400040286A
:1010E00020D100BF00BF2168143151E8001F21F05A
:1010F00040002168143141E80002002AF3D100BF0A
:10110000A06B50B17548A16B0865A06BFFF7E3F9C0
:1011100088B1A06B016D88470DE02046FFF76FFF97
:1011200009E009E02046FFF76AFF04E02046FFF7E8
:1011300066FF002020647DE7206B012876D105F052
:101140001000002872D006F010000028FAD000BF6E
:10115000002000902068006800902068406800909F
:1011600000BF00BF2068406900F0400040285ED109
:10117000A06B006840681FFA80F8B8F1000F54D0E7
:10118000A08D404551DDA4F82E80A06BC069B0F55C
:10119000807F43D000BF00BF21680C3151E8001FA1
:1011A00021F4807021680C3141E80002002AF3D15B
:1011B00000BF00BF00BF2168143151E8001F21F0BB
:1011C00001002168143141E80002002AF3D100BF78
:1011D00000BF00BF2168143151E8001F21F040001A
:1011E0002168143141E80002002AF3D100BF202019
:1011F00084F83E000020206300BF00BF21680C314E
:1012000051E8001F21F0100021680C3141E8000274
:10121000002AF3D100BFA06BFFF707F9A08DE28D84
:10122000801A81B22046FFF7E9FE03E740E0A08D77
:10123000E18D401A1FFA80F8E08DC0B3B8F1000FBD
:1012400035D000BF00BF21680C3151E8001F21F4E8
:10125000907021680C3141E80002002AF3D100BFF0
:1012600000BF00BF2168143151E8001F21F00100C8
:101270002168143141E80002002AF3D100BF202088
:1012800084F83E000020206300BF00BF21680C31BD
:1012900051E8001F21F0100021680C3141E80002E4
:1012A000002AF3D100BF41462046FFF7A7FEC1E662
:1012B00005F0800030B106F0800018B1204600F043
:1012C00094FBB7E605F0400030B106F0400018B1DD
:1012D000204600F0C3F9ADE600BFABE6DD1500081F
:1012E00010B504460CB9012010BDA06900B100E0A2
:1012F00000BF94F83D0028B9002084F83C00204647
:1013000000F028F8242084F83D002068C06820F40C
:1013100000502168C860204600F02CFA206800695F
:1013200020F49040216808612068406920F02A007C
:10133000216848612068C06840F400502168C86096
:1013400000202064202084F83D0084F83E00002026
:10135000CAE7000010B586B00446142101A8FEF7C4
:10136000FAFF1F492068884237D100BF0020009053
:101370001C48006840F010001A49086008460068E0
:1013800000F01000009000BF00BF00BF00200090E0
:1013900014481438006840F00200124914390860FB
:1013A0000846006800F00200009000BF00BFC020A7
:1013B0000190022002900120039003200490072056
:1013C000059001A90848FFF79BF800221146252047
:1013D000FFF71AFA2520FFF707FA06B010BD000044
:1013E00000100140443802400004024070B5044639
:1013F0000D46164694F83E00202816D105B10EB9C8
:10140000012070BD00BF94F83C00012801D10220EA
:10141000F7E7012084F83C0000BF0020206332463B
:101420002946204600F0BCFAEBE70220E9E700007D
:1014300010B5044606492068884208D1054800785E
:1014400000F056FB012203490348FFF7CFFF10BD10
:1014500000100140100000201C000020704700BF59
:10146000FEE7000008B500BF0020009015480068A6
:1014700040F00100134908600846006800F00100D0
:10148000009000BF00BF00BF002000900846006829
:1014900040F0020008600846006800F0020000907A
:1014A00000BF00BF00BF002000900846006840F069
:1014B000800008600846006800F08000009000BFCF
:1014C00000BF08BD3038024010B50B480B4908601A
:1014D0004FF4E1304860002108488160C16001613B
:1014E0000C21416100218161C161FFF7F9FE08B162
:1014F000FEF798FF10BD0000001001401C00002006
:1015000000BFFEE700BFFEE77047704710B5FFF76A
:10151000F7F810BD00B593B0302107A8FEF71BFF08
:10152000142102A8FEF717FF00BF002001902448F5
:10153000006840F08050224908600846006800F0CA
:101540008050019000BF00BF00BF002001901D48E7
:10155000006840F480401B4908600846006800F4B9
:101560008040019000BF00BF012007900004089058
:1015700002200D9041050E9106210F91A821109196
:10158000022111910421129107A8FFF7CFFA08B1A7
:10159000FEF748FF0F2002900220039000200490E5
:1015A0004FF4A05005904FF480500690052102A8FA
:1015B000FFF77CF908B1FEF735FF13B000BD00005E
:1015C00040380240007000400348006840F470005A
:1015D000014908607047000088ED00E070B50546DD
:1015E000AC6B0020E085E0842046FFF708FD70BD6D
:1015F00000BF00BF02680C3252E8002F22F4907145
:1016000002680C3242E80013002BF3D100BF00BF88
:1016100000BF0268143252E8002F22F00101026874
:10162000143242E80013002BF3D100BF016B0129F3
:101630000ED100BF00BF02680C3252E8002F22F02A
:10164000100102680C3242E80013002BF3D100BFF6
:10165000202180F83E1000210163704710B5044638
:101660002068C06820F040002168C860202084F80D
:101670003D002046FFF7F2FE002010BDF8B50446FD
:1016800094F83E00222873D1A068B0F5805F0CD199
:10169000206950B90025A66A20684068C0F3080098
:1016A0003080A06A801CA06215E0A56A0026A068B0
:1016B000B0F5805F03D0A06828B9206918B9206808
:1016C0004068287004E02068406800F07F002870BF
:1016D000A06A401CA062E08D401E80B2E085002818
:1016E00044D12068C06820F020002168C8602068CC
:1016F000C06820F480702168C8602068406920F0CC
:10170000010021684861202084F83E00206B0128F8
:1017100026D10020206300BF00BF21680C3151E8B2
:10172000001F21F0100021680C3141E80002002A5E
:10173000F3D100BF2068006800F0100010280AD123
:1017400000BF00200090206800680090206840687A
:10175000009000BF00BFA18D2046FFF74FFC02E0C4
:101760002046FFF765FE0020F8BD01E00020FBE702
:101770000220F9E72DE9F84F04462068006920F4BB
:101780004050E1680843216808612169A068084366
:1017900061690843E169084300902068C06849F224
:1017A0000C618843009908432168C860206840693B
:1017B00020F44070A1690843216848617649206897
:1017C000884203D075492068884203D1FFF746F963
:1017D000814602E0FFF732F98146E069B0F5004F3B
:1017E0006CD102206168A0FB015003461920A9FBBF
:1017F000007001462A463846FEF736FD6421B0FBEC
:10180000F1F04FEA001A02206168A0FB01510B467B
:101810001920A9FB00712A463846FEF725FD8346AC
:1018200002206168A0FB015003461920A9FB00714A
:101830002A463846FEF718FD6421B0FBF1F000EBB4
:10184000C00101EB0010ABEB8000322101EBC000C6
:101850006421B0FBF1F000F0F8000AEB400A02202E
:101860006168A0FB015003461920A9FB00700146E6
:101870002A463846FEF7F8FC834602206168A0FB42
:10188000015003461920A9FB00712A463846FEF78D
:10189000EBFC6421B0FBF1F000EBC00101EB0010A8
:1018A000ABEB8000322101EBC0006421B0FBF1F012
:1018B00000F007005044216888606AE004206168F5
:1018C000A0FB015003461920A9FB007001462A46DF
:1018D0003846FEF7C9FC824604206168A0FB01502F
:1018E00003461920A9FB007001462A463846FEF738
:1018F000BBFC6421B0FBF1F000EBC00101EB001078
:10190000AAEB8000322101EB00106421B0FBF1F062
:1019100000F0F00A04206168A0FB01700346192062
:10192000A9FB00513A462846FEF79EFC6421B0FB15
:10193000F1F00AEB001A04206168A0FB01510B468C
:101940001920A9FB00712A463846FEF78DFC834614
:1019500004206168A0FB015003461920A9FB007018
:1019600001462A463846FEF77FFC6421B0FBF1F0C1
:1019700000EBC00101EB0010ABEB8000322101EB6A
:1019800000106421B0FBF1F000F00F00504421681A
:101990008860BDE8F88F000000100140001401408D
:1019A00010B5034699629A85DA85002018642220D2
:1019B00083F83E0000BF002083F83C0000BF186998
:1019C00028B11868C06840F480701C68E06018682E
:1019D000406940F001001C6860611868C06840F010
:1019E00020001C68E060002010BD014691F83D0019
:1019F000212828D18868B0F5805F0BD1086948B9E3
:101A00000A6A1088C0F308000B685860086A801CD6
:101A1000086205E00B6A581C086218780B68586069
:101A2000C88C401E80B2C88458B90868C06820F0CD
:101A300080000B68D8600868C06840F040000B6800
:101A4000D860002070470220FCE7000010B5024873
:101A5000FFF7D6FA10BD00001C00002000BFFEE713
:101A600002480068C0F30220704700000CED00E05F
:101A700010B5002804DB0A07130E054A135406E0CC
:101A80000A07140E034A00F00F031B1FD45410BDA5
:101A900000E400E018ED00E010B502460B4600211E
:101AA000002002E0145C2144401C9842FADB084606
:101AB000CC1701EB14642412A1EB0421C8B210BDB1
:101AC000FEF72AFEFFF726FDFFF7CCFCFFF7FCFC34
:101AD00000F002F800BFFEE710B5012202490348FA
:101AE000FFF784FC10BD0000100000201C00002047
:101AF00070B52DED048B05467348744991F90010BB
:101B0000455472480078401C40B2704908707048D3
:101B1000007810B101287CD109E0552D03D10120B6
:101B20006B49087002E0002068490870C8E0674807
:101B300090F900000B286DDB0A216348FFF7ACFF2A
:101B40006149897A884266D15F484078512804D03B
:101B5000522837D053286ED16EE000242FE0600069
:101B6000801C5949095C6000C01C574A105C41EA5E
:101B7000002000B2574921F81400084630F914003B
:101B800000EE100AB8EEC00ADFED530A80EE201A0C
:101B900011EE106A304600F0DFF941EC190B9FEDB1
:101BA0004F0B53EC102B00F0D9F841EC180B00F060
:101BB000A3F801464B4840F82410601C44B2032CA3
:101BC000CDDB6FE0002433E06000801C3E49095CFF
:101BD0006000C01C3C4A105C41EA002000B23D4954
:101BE00021F81400084630F9140000EE100AB8EE8F
:101BF000C00ADFED390A80EE201A11EE106A304675
:101C000000F0AAF941EC190B9FED370B53EC102BA8
:101C100002E054E052E04CE000F0A0F841EC180B78
:101C200000F06AF82F490C3941F82400601C44B2D6
:101C3000032CC9DB36E034E000242FE06000801C78
:101C40002149095C6000C01C1F4A105C41EA002069
:101C500000B2204921F81400084630F9140000EEC3
:101C6000100AB8EEC00ADFED1C0A80EE201A11EE51
:101C7000106A304600F070F941EC190B9FED1C0B17
:101C800053EC102B00F06AF841EC180B00F034F81C
:101C900014490C3141F82400601C44B2032CCDDB04
:101CA00000E000BF00BF0020084908700849087024
:101CB00004E00020054908700549087000E000BFF5
:101CC00000BFBDEC048B70BD840000201300002019
:101CD0001200002014000020000000479A999999F2
:101CE000999963406C0000200000000000409F4074
:101CF000000000000080664021F00042A2F1605226
:101D0000B2F5801F01F0004328BFD2F17F6C0BD9E0
:101D10005FEA001C43EAC20242EB507018BF7047F2
:101D200028BF20F001007047B2F5801FBCBF1846E5
:101D300070474FEA410C1CF5001F02D2084600F024
:101D400081B970B500F0B4F800000089FFF7F6BF64
:101D50004FF00040A0F5800070470000DFF848C158
:101D600070B51CEA111E1EBF1CEA13159EEA0C0F6B
:101D700095EA0C0F00F06F8081EA030423EA4C130C
:101D80004EEAD47E21EA4C1141F4801143F48013D1
:101D9000AE44A1FB024CA0FB0365AEF17F7E361979
:101DA00055EB0C05A1FB034C4CF10003A0FB021CFE
:101DB00016EB0C06654153F10003094218BF46F0CB
:101DC000010613F4007F0BD14FEA03314FEA0530CF
:101DD000340341EA155140EA16506FF003020AE05D
:101DE0004FEAC3214FEAC520F40241EA555140EAC7
:101DF00056506FF0020202EB2E4201EB025585EACB
:101E0000CE710AD05FEA440C18BF24F0004450F1B0
:101E1000000041F1000120EAD47040F2FE7C6245EE
:101E200000D270BDA84214BF4FF080444FF0404430
:101E3000002E08BF0024BEF1806FA8BFA1F1C041F1
:101E4000BDE8704080F282804FF0000001F1C04197
:101E500001F0004170479EEA0C0F0CEA131518BF01
:101E600095EA0C0F06D04FF0000081EA030E0EF049
:101E7000004170BD00F01CF88900013E00F007B879
:101E800000F009B84FEA430C5FEA5C5C08D081EAD5
:101E9000030100F05BB84FEA410C5FEA5C5CF6D1ED
:101EA0004FF00000014970470000FF070000F87F75
:101EB0000EF1020E2EF0030E5EF8046B364205D4CE
:101EC000012A43EB030515F5001F12D8012841EB49
:101ED000010C1CF5001F0CD80ED14FEAD17C15F572
:101EE000001F0CEB4C0C0CF1020C08BF4CEBD37C2C
:101EF00004E04FF0080C01E04FEAD37C0CEB4C05FA
:101F000026FA05F606F00706B6F1040C06D20EEB2B
:101F1000860CBDE870404CF0010C6047DFE80CF027
:101F2000090B02024FF000414FF00000A1F5002123
:101F300070BD19461046012851EB010418BFD4F5B5
:101F4000001484BF002001F0004170BD0808A0F516
:101F500000114FEA3101704743004FEAD30C4FEABA
:101F60003C0C43401FBF40070CF1605113F0FE4F83
:101F700070471CF0006F03D100200CF00041704747
:101F80000CF0004343EA507010B540EACC0000F07A
:101F90000EF800BF000000924FEA0001FFF7D6BF25
:101FA0004FF000414FF00000A1F5002170470EF105
:101FB000020E2EF0030E5EF8044B244204D44FEAC6
:101FC0004102B2F17F4F11D84FEA4003B3F17F4F86
:101FD0000CD80ED14FEAD07CB2F17F4F0CEB4C0CF9
:101FE0000CF1020C08BF4CEBD17C04E04FF0080C64
:101FF00001E04FEAD17C0CEB4C0324FA03F404F02B
:102000000704B4F1040C06D20EEB840CBDE81040BA
:102010004CF0010C6047DFE80CF0070802024FF0BB
:102020000040A0F5800010BD0846420018BFD2F164
:10203000807288BF00F0004010BD4FF04070E1EEAC
:10204000100A7047FF2141EAD050C00570470000D8
:102050000000000000000102030406070809000058
:102060000000010203040000882000080000002096
:102070001C000000C4010008A42000081C0000206F
:10208000D4060000E001000800000000100000007D
:10209000010000000024F400000000000000000027
:0420A000000000003C
:040000050800018965
:00000001FF
